{
  "contractName": "NFTeamAuth",
  "abi": [
    {
      "inputs": [
        {
          "internalType": "address",
          "name": "_tokenAddress",
          "type": "address"
        }
      ],
      "stateMutability": "nonpayable",
      "type": "constructor"
    },
    {
      "anonymous": false,
      "inputs": [
        {
          "indexed": false,
          "internalType": "address",
          "name": "userWallet",
          "type": "address"
        },
        {
          "indexed": false,
          "internalType": "bytes32",
          "name": "userName",
          "type": "bytes32"
        },
        {
          "indexed": false,
          "internalType": "bool",
          "name": "isArtist",
          "type": "bool"
        }
      ],
      "name": "userAdded",
      "type": "event"
    },
    {
      "inputs": [
        {
          "internalType": "address",
          "name": "_userWallet",
          "type": "address"
        },
        {
          "internalType": "bytes32",
          "name": "_userName",
          "type": "bytes32"
        },
        {
          "internalType": "bool",
          "name": "_isArtist",
          "type": "bool"
        }
      ],
      "name": "addUser",
      "outputs": [],
      "stateMutability": "nonpayable",
      "type": "function"
    }
  ],
  "bytecode": "0x608060405234801561001057600080fd5b506040516106cb3803806106cb8339818101604052810190610032919061011c565b336000806101000a81548173ffffffffffffffffffffffffffffffffffffffff021916908373ffffffffffffffffffffffffffffffffffffffff16021790555080600160006101000a81548173ffffffffffffffffffffffffffffffffffffffff021916908373ffffffffffffffffffffffffffffffffffffffff16021790555050610149565b600080fd5b600073ffffffffffffffffffffffffffffffffffffffff82169050919050565b60006100e9826100be565b9050919050565b6100f9816100de565b811461010457600080fd5b50565b600081519050610116816100f0565b92915050565b600060208284031215610132576101316100b9565b5b600061014084828501610107565b91505092915050565b610573806101586000396000f3fe608060405234801561001057600080fd5b506004361061002b5760003560e01c8063ade66d2614610030575b600080fd5b61004a6004803603810190610045919061037f565b61004c565b005b60008054906101000a900473ffffffffffffffffffffffffffffffffffffffff1673ffffffffffffffffffffffffffffffffffffffff163373ffffffffffffffffffffffffffffffffffffffff16146100da576040517f08c379a00000000000000000000000000000000000000000000000000000000081526004016100d19061042f565b60405180910390fd5b60001515600460008573ffffffffffffffffffffffffffffffffffffffff1673ffffffffffffffffffffffffffffffffffffffff16815260200190815260200160002060009054906101000a900460ff1615151461016d576040517f08c379a00000000000000000000000000000000000000000000000000000000081526004016101649061049b565b60405180910390fd5b6040518060800160405280600254815260200182151581526020018473ffffffffffffffffffffffffffffffffffffffff16815260200183815250600360008481526020019081526020016000206000820151816000015560208201518160010160006101000a81548160ff02191690831515021790555060408201518160010160016101000a81548173ffffffffffffffffffffffffffffffffffffffff021916908373ffffffffffffffffffffffffffffffffffffffff160217905550606082015181600201559050506001600460008573ffffffffffffffffffffffffffffffffffffffff1673ffffffffffffffffffffffffffffffffffffffff16815260200190815260200160002060006101000a81548160ff021916908315150217905550600260008154809291906102a4906104f4565b9190505550505050565b600080fd5b600073ffffffffffffffffffffffffffffffffffffffff82169050919050565b60006102de826102b3565b9050919050565b6102ee816102d3565b81146102f957600080fd5b50565b60008135905061030b816102e5565b92915050565b6000819050919050565b61032481610311565b811461032f57600080fd5b50565b6000813590506103418161031b565b92915050565b60008115159050919050565b61035c81610347565b811461036757600080fd5b50565b60008135905061037981610353565b92915050565b600080600060608486031215610398576103976102ae565b5b60006103a6868287016102fc565b93505060206103b786828701610332565b92505060406103c88682870161036a565b9150509250925092565b600082825260208201905092915050565b7f4e6f7420616e2061646d696e0000000000000000000000000000000000000000600082015250565b6000610419600c836103d2565b9150610424826103e3565b602082019050919050565b600060208201905081810360008301526104488161040c565b9050919050565b7f7573657220616c72656164792065786973747300000000000000000000000000600082015250565b60006104856013836103d2565b91506104908261044f565b602082019050919050565b600060208201905081810360008301526104b481610478565b9050919050565b7f4e487b7100000000000000000000000000000000000000000000000000000000600052601160045260246000fd5b6000819050919050565b60006104ff826104ea565b91507fffffffffffffffffffffffffffffffffffffffffffffffffffffffffffffffff821415610532576105316104bb565b5b60018201905091905056fea26469706673582212208179926204508f62336efd35489f528362b40a0efbaa8f7d48e7325d92b992c864736f6c634300080a0033",
  "immutableReferences": {},
  "source": "// SPDX-Licence-identifier : MIT\npragma solidity ^0.8.6;\n\ncontract NFTeamAuth {\n    address admin;\n    address NFTeam_token;\n    uint256 nextUser;\n\n    struct User {\n        uint256 id;\n        bool isArtist;\n        address wallet;\n        bytes32 userName; //Spotify userName\n    }\n\n    mapping(bytes32 => User) users;\n    mapping(address => bool) isAuthenticated;\n\n    modifier onlyAdmin() {\n        require(msg.sender == admin, \"Not an admin\");\n        _;\n    }\n\n    modifier onlyAuthenticated(address _user){\n        require(isAuthenticated[_user], \"You must authenticate\");\n        _;\n    }\n\n    event userAdded(address userWallet, bytes32 userName, bool isArtist);\n    constructor(address _tokenAddress){\n        admin = msg.sender;\n        NFTeam_token = _tokenAddress;\n    }\n\n    function addUser(address _userWallet, bytes32 _userName, bool _isArtist) onlyAdmin external {\n        require(isAuthenticated[_userWallet] == false, \"user already exists\");\n        users[_userName] = User(nextUser, _isArtist, _userWallet, _userName );\n        isAuthenticated[_userWallet] = true;\n        nextUser++;\n    }\n}",
  "sourcePath": "/Users/th0t_nzeng/Coding/blockchain/starton_hackaton/NFTeam/contracts/Authenticate.sol",
  "compiler": {
    "name": "solc",
    "version": "0.8.10+commit.fc410830.Emscripten.clang"
  },
  "schemaVersion": "3.4.3",
  "updatedAt": "2021-12-05T01:04:20.632Z",
  "devdoc": {
    "kind": "dev",
    "methods": {},
    "version": 1
  },
  "userdoc": {
    "kind": "user",
    "methods": {},
    "version": 1
  }
}